{
  "_format": "hh-sol-artifact-1",
  "contractName": "MyEpicGame",
  "sourceName": "contracts/MyEpicGame.sol",
  "abi": [
    {
      "inputs": [
        {
          "internalType": "string[]",
          "name": "characterNames",
          "type": "string[]"
        },
        {
          "internalType": "string[]",
          "name": "characterImageURIs",
          "type": "string[]"
        },
        {
          "internalType": "uint256[]",
          "name": "characterHp",
          "type": "uint256[]"
        },
        {
          "internalType": "uint256[]",
          "name": "characterAttackDmg",
          "type": "uint256[]"
        },
        {
          "internalType": "string",
          "name": "bossName",
          "type": "string"
        },
        {
          "internalType": "string",
          "name": "bossImageURI",
          "type": "string"
        },
        {
          "internalType": "uint256",
          "name": "bossHp",
          "type": "uint256"
        },
        {
          "internalType": "uint256",
          "name": "bossAttackDamage",
          "type": "uint256"
        }
      ],
      "stateMutability": "nonpayable",
      "type": "constructor"
    },
    {
      "anonymous": false,
      "inputs": [
        {
          "indexed": true,
          "internalType": "address",
          "name": "owner",
          "type": "address"
        },
        {
          "indexed": true,
          "internalType": "address",
          "name": "approved",
          "type": "address"
        },
        {
          "indexed": true,
          "internalType": "uint256",
          "name": "tokenId",
          "type": "uint256"
        }
      ],
      "name": "Approval",
      "type": "event"
    },
    {
      "anonymous": false,
      "inputs": [
        {
          "indexed": true,
          "internalType": "address",
          "name": "owner",
          "type": "address"
        },
        {
          "indexed": true,
          "internalType": "address",
          "name": "operator",
          "type": "address"
        },
        {
          "indexed": false,
          "internalType": "bool",
          "name": "approved",
          "type": "bool"
        }
      ],
      "name": "ApprovalForAll",
      "type": "event"
    },
    {
      "anonymous": false,
      "inputs": [
        {
          "indexed": false,
          "internalType": "uint256",
          "name": "newBossHp",
          "type": "uint256"
        },
        {
          "indexed": false,
          "internalType": "uint256",
          "name": "newPlayerHp",
          "type": "uint256"
        },
        {
          "indexed": false,
          "internalType": "uint256",
          "name": "respawnIn",
          "type": "uint256"
        }
      ],
      "name": "AttackComplete",
      "type": "event"
    },
    {
      "anonymous": false,
      "inputs": [
        {
          "indexed": false,
          "internalType": "address",
          "name": "sender",
          "type": "address"
        },
        {
          "indexed": false,
          "internalType": "uint256",
          "name": "tokenId",
          "type": "uint256"
        },
        {
          "indexed": false,
          "internalType": "uint256",
          "name": "characterIndex",
          "type": "uint256"
        }
      ],
      "name": "CharacterNFTMinted",
      "type": "event"
    },
    {
      "anonymous": false,
      "inputs": [
        {
          "indexed": true,
          "internalType": "address",
          "name": "from",
          "type": "address"
        },
        {
          "indexed": true,
          "internalType": "address",
          "name": "to",
          "type": "address"
        },
        {
          "indexed": true,
          "internalType": "uint256",
          "name": "tokenId",
          "type": "uint256"
        }
      ],
      "name": "Transfer",
      "type": "event"
    },
    {
      "inputs": [
        {
          "internalType": "address",
          "name": "to",
          "type": "address"
        },
        {
          "internalType": "uint256",
          "name": "tokenId",
          "type": "uint256"
        }
      ],
      "name": "approve",
      "outputs": [],
      "stateMutability": "nonpayable",
      "type": "function"
    },
    {
      "inputs": [],
      "name": "attackBoss",
      "outputs": [],
      "stateMutability": "nonpayable",
      "type": "function"
    },
    {
      "inputs": [
        {
          "internalType": "address",
          "name": "owner",
          "type": "address"
        }
      ],
      "name": "balanceOf",
      "outputs": [
        {
          "internalType": "uint256",
          "name": "",
          "type": "uint256"
        }
      ],
      "stateMutability": "view",
      "type": "function"
    },
    {
      "inputs": [],
      "name": "bigBoss",
      "outputs": [
        {
          "internalType": "string",
          "name": "name",
          "type": "string"
        },
        {
          "internalType": "string",
          "name": "imageURI",
          "type": "string"
        },
        {
          "internalType": "uint256",
          "name": "hp",
          "type": "uint256"
        },
        {
          "internalType": "uint256",
          "name": "maxHp",
          "type": "uint256"
        },
        {
          "internalType": "uint256",
          "name": "attackDamage",
          "type": "uint256"
        }
      ],
      "stateMutability": "view",
      "type": "function"
    },
    {
      "inputs": [],
      "name": "checkIfUserHasNFT",
      "outputs": [
        {
          "components": [
            {
              "internalType": "uint256",
              "name": "characterIndex",
              "type": "uint256"
            },
            {
              "internalType": "string",
              "name": "name",
              "type": "string"
            },
            {
              "internalType": "string",
              "name": "imageURI",
              "type": "string"
            },
            {
              "internalType": "uint256",
              "name": "hp",
              "type": "uint256"
            },
            {
              "internalType": "uint256",
              "name": "maxHp",
              "type": "uint256"
            },
            {
              "internalType": "uint256",
              "name": "attackDamage",
              "type": "uint256"
            },
            {
              "internalType": "uint256",
              "name": "respawnTime",
              "type": "uint256"
            },
            {
              "internalType": "uint256",
              "name": "respawnIn",
              "type": "uint256"
            }
          ],
          "internalType": "struct MyEpicGame.CharacterAttributes",
          "name": "",
          "type": "tuple"
        }
      ],
      "stateMutability": "view",
      "type": "function"
    },
    {
      "inputs": [],
      "name": "getAllDefaultCharacters",
      "outputs": [
        {
          "components": [
            {
              "internalType": "uint256",
              "name": "characterIndex",
              "type": "uint256"
            },
            {
              "internalType": "string",
              "name": "name",
              "type": "string"
            },
            {
              "internalType": "string",
              "name": "imageURI",
              "type": "string"
            },
            {
              "internalType": "uint256",
              "name": "hp",
              "type": "uint256"
            },
            {
              "internalType": "uint256",
              "name": "maxHp",
              "type": "uint256"
            },
            {
              "internalType": "uint256",
              "name": "attackDamage",
              "type": "uint256"
            },
            {
              "internalType": "uint256",
              "name": "respawnTime",
              "type": "uint256"
            },
            {
              "internalType": "uint256",
              "name": "respawnIn",
              "type": "uint256"
            }
          ],
          "internalType": "struct MyEpicGame.CharacterAttributes[]",
          "name": "",
          "type": "tuple[]"
        }
      ],
      "stateMutability": "view",
      "type": "function"
    },
    {
      "inputs": [
        {
          "internalType": "uint256",
          "name": "tokenId",
          "type": "uint256"
        }
      ],
      "name": "getApproved",
      "outputs": [
        {
          "internalType": "address",
          "name": "",
          "type": "address"
        }
      ],
      "stateMutability": "view",
      "type": "function"
    },
    {
      "inputs": [],
      "name": "getBoss",
      "outputs": [
        {
          "components": [
            {
              "internalType": "string",
              "name": "name",
              "type": "string"
            },
            {
              "internalType": "string",
              "name": "imageURI",
              "type": "string"
            },
            {
              "internalType": "uint256",
              "name": "hp",
              "type": "uint256"
            },
            {
              "internalType": "uint256",
              "name": "maxHp",
              "type": "uint256"
            },
            {
              "internalType": "uint256",
              "name": "attackDamage",
              "type": "uint256"
            }
          ],
          "internalType": "struct MyEpicGame.BigBoss",
          "name": "",
          "type": "tuple"
        }
      ],
      "stateMutability": "view",
      "type": "function"
    },
    {
      "inputs": [
        {
          "internalType": "address",
          "name": "owner",
          "type": "address"
        },
        {
          "internalType": "address",
          "name": "operator",
          "type": "address"
        }
      ],
      "name": "isApprovedForAll",
      "outputs": [
        {
          "internalType": "bool",
          "name": "",
          "type": "bool"
        }
      ],
      "stateMutability": "view",
      "type": "function"
    },
    {
      "inputs": [
        {
          "internalType": "uint256",
          "name": "_characterIndex",
          "type": "uint256"
        }
      ],
      "name": "mintCharacterNFT",
      "outputs": [],
      "stateMutability": "nonpayable",
      "type": "function"
    },
    {
      "inputs": [],
      "name": "name",
      "outputs": [
        {
          "internalType": "string",
          "name": "",
          "type": "string"
        }
      ],
      "stateMutability": "view",
      "type": "function"
    },
    {
      "inputs": [
        {
          "internalType": "address",
          "name": "",
          "type": "address"
        }
      ],
      "name": "nftHolders",
      "outputs": [
        {
          "internalType": "uint256",
          "name": "",
          "type": "uint256"
        }
      ],
      "stateMutability": "view",
      "type": "function"
    },
    {
      "inputs": [
        {
          "internalType": "uint256",
          "name": "",
          "type": "uint256"
        }
      ],
      "name": "nftHoldersAttributes",
      "outputs": [
        {
          "internalType": "uint256",
          "name": "characterIndex",
          "type": "uint256"
        },
        {
          "internalType": "string",
          "name": "name",
          "type": "string"
        },
        {
          "internalType": "string",
          "name": "imageURI",
          "type": "string"
        },
        {
          "internalType": "uint256",
          "name": "hp",
          "type": "uint256"
        },
        {
          "internalType": "uint256",
          "name": "maxHp",
          "type": "uint256"
        },
        {
          "internalType": "uint256",
          "name": "attackDamage",
          "type": "uint256"
        },
        {
          "internalType": "uint256",
          "name": "respawnTime",
          "type": "uint256"
        },
        {
          "internalType": "uint256",
          "name": "respawnIn",
          "type": "uint256"
        }
      ],
      "stateMutability": "view",
      "type": "function"
    },
    {
      "inputs": [
        {
          "internalType": "uint256",
          "name": "tokenId",
          "type": "uint256"
        }
      ],
      "name": "ownerOf",
      "outputs": [
        {
          "internalType": "address",
          "name": "",
          "type": "address"
        }
      ],
      "stateMutability": "view",
      "type": "function"
    },
    {
      "inputs": [
        {
          "internalType": "address",
          "name": "from",
          "type": "address"
        },
        {
          "internalType": "address",
          "name": "to",
          "type": "address"
        },
        {
          "internalType": "uint256",
          "name": "tokenId",
          "type": "uint256"
        }
      ],
      "name": "safeTransferFrom",
      "outputs": [],
      "stateMutability": "nonpayable",
      "type": "function"
    },
    {
      "inputs": [
        {
          "internalType": "address",
          "name": "from",
          "type": "address"
        },
        {
          "internalType": "address",
          "name": "to",
          "type": "address"
        },
        {
          "internalType": "uint256",
          "name": "tokenId",
          "type": "uint256"
        },
        {
          "internalType": "bytes",
          "name": "_data",
          "type": "bytes"
        }
      ],
      "name": "safeTransferFrom",
      "outputs": [],
      "stateMutability": "nonpayable",
      "type": "function"
    },
    {
      "inputs": [
        {
          "internalType": "address",
          "name": "operator",
          "type": "address"
        },
        {
          "internalType": "bool",
          "name": "approved",
          "type": "bool"
        }
      ],
      "name": "setApprovalForAll",
      "outputs": [],
      "stateMutability": "nonpayable",
      "type": "function"
    },
    {
      "inputs": [
        {
          "internalType": "bytes4",
          "name": "interfaceId",
          "type": "bytes4"
        }
      ],
      "name": "supportsInterface",
      "outputs": [
        {
          "internalType": "bool",
          "name": "",
          "type": "bool"
        }
      ],
      "stateMutability": "view",
      "type": "function"
    },
    {
      "inputs": [],
      "name": "symbol",
      "outputs": [
        {
          "internalType": "string",
          "name": "",
          "type": "string"
        }
      ],
      "stateMutability": "view",
      "type": "function"
    },
    {
      "inputs": [
        {
          "internalType": "uint256",
          "name": "_tokenId",
          "type": "uint256"
        }
      ],
      "name": "tokenURI",
      "outputs": [
        {
          "internalType": "string",
          "name": "",
          "type": "string"
        }
      ],
      "stateMutability": "view",
      "type": "function"
    },
    {
      "inputs": [
        {
          "internalType": "address",
          "name": "from",
          "type": "address"
        },
        {
          "internalType": "address",
          "name": "to",
          "type": "address"
        },
        {
          "internalType": "uint256",
          "name": "tokenId",
          "type": "uint256"
        }
      ],
      "name": "transferFrom",
      "outputs": [],
      "stateMutability": "nonpayable",
      "type": "function"
    }
  ],
  "bytecode": "0x60806040523480156200001157600080fd5b5060405162005b1038038062005b10833981810160405281019062000037919062000a92565b6040518060400160405280600c81526020017f435320474f204845524f455300000000000000000000000000000000000000008152506040518060400160405280600481526020017f4845524f000000000000000000000000000000000000000000000000000000008152508160009080519060200190620000bb92919062000825565b508060019080519060200190620000d492919062000825565b5050506040518060a0016040528085815260200184815260200183815260200183815260200182815250600860008201518160000190805190602001906200011e92919062000825565b5060208201518160010190805190602001906200013d92919062000825565b50604082015181600201556060820151816003015560808201518160040155905050620002c060405180606001604052806022815260200162005aee60229139600860000180546200018f9062000e1d565b80601f0160208091040260200160405190810160405280929190818152602001828054620001bd9062000e1d565b80156200020e5780601f10620001e2576101008083540402835291602001916200020e565b820191906000526020600020905b815481529060010190602001808311620001f057829003601f168201915b5050505050600860020154600860010180546200022b9062000e1d565b80601f0160208091040260200160405190810160405280929190818152602001828054620002599062000e1d565b8015620002aa5780601f106200027e57610100808354040283529160200191620002aa565b820191906000526020600020905b8154815290600101906020018083116200028c57829003601f168201915b50505050506200073a60201b62001d6a1760201c565b60005b8851811015620007145760076040518061010001604052808381526020018b84815181106200031b577f4e487b7100000000000000000000000000000000000000000000000000000000600052603260045260246000fd5b602002602001015181526020018a848151811062000362577f4e487b7100000000000000000000000000000000000000000000000000000000600052603260045260246000fd5b60200260200101518152602001898481518110620003a9577f4e487b7100000000000000000000000000000000000000000000000000000000600052603260045260246000fd5b60200260200101518152602001898481518110620003f0577f4e487b7100000000000000000000000000000000000000000000000000000000600052603260045260246000fd5b6020026020010151815260200188848151811062000437577f4e487b7100000000000000000000000000000000000000000000000000000000600052603260045260246000fd5b60200260200101518152602001603c815260200160008152509080600181540180825580915050600190039060005260206000209060080201600090919091909150600082015181600001556020820151816001019080519060200190620004a192919062000825565b506040820151816002019080519060200190620004c092919062000825565b50606082015181600301556080820151816004015560a0820151816005015560c0820151816006015560e08201518160070155505060006007828154811062000532577f4e487b7100000000000000000000000000000000000000000000000000000000600052603260045260246000fd5b90600052602060002090600802016040518061010001604052908160008201548152602001600182018054620005689062000e1d565b80601f0160208091040260200160405190810160405280929190818152602001828054620005969062000e1d565b8015620005e75780601f10620005bb57610100808354040283529160200191620005e7565b820191906000526020600020905b815481529060010190602001808311620005c957829003601f168201915b50505050508152602001600282018054620006029062000e1d565b80601f0160208091040260200160405190810160405280929190818152602001828054620006309062000e1d565b8015620006815780601f10620006555761010080835404028352916020019162000681565b820191906000526020600020905b8154815290600101906020018083116200066357829003601f168201915b50505050508152602001600382015481526020016004820154815260200160058201548152602001600682015481526020016007820154815250509050620006fc60405180606001604052806025815260200162005ac9602591398260200151836060015184604001516200073a60201b62001d6a1760201c565b506001816200070c919062000d80565b9050620002c3565b506200072c6006620007e660201b62001e0c1760201c565b505050505050505062000f0b565b620007e08484848460405160240162000757949392919062000c3d565b6040516020818303038152906040527f8d142cdd000000000000000000000000000000000000000000000000000000007bffffffffffffffffffffffffffffffffffffffffffffffffffffffff19166020820180517bffffffffffffffffffffffffffffffffffffffffffffffffffffffff8381831617835250505050620007fc60201b60201c565b50505050565b6001816000016000828254019250508190555050565b60008151905060006a636f6e736f6c652e6c6f679050602083016000808483855afa5050505050565b828054620008339062000e1d565b90600052602060002090601f016020900481019282620008575760008555620008a3565b82601f106200087257805160ff1916838001178555620008a3565b82800160010185558215620008a3579182015b82811115620008a257825182559160200191906001019062000885565b5b509050620008b29190620008b6565b5090565b5b80821115620008d1576000816000905550600101620008b7565b5090565b6000620008ec620008e68462000cd3565b62000c9f565b9050808382526020820190508260005b8581101562000930578151850162000915888262000a4e565b845260208401935060208301925050600181019050620008fc565b5050509392505050565b6000620009516200094b8462000d02565b62000c9f565b905080838252602082019050828560208602820111156200097157600080fd5b60005b85811015620009a557816200098a888262000a7b565b84526020840193506020830192505060018101905062000974565b5050509392505050565b6000620009c6620009c08462000d31565b62000c9f565b905082815260208101848484011115620009df57600080fd5b620009ec84828562000de7565b509392505050565b600082601f83011262000a0657600080fd5b815162000a18848260208601620008d5565b91505092915050565b600082601f83011262000a3357600080fd5b815162000a458482602086016200093a565b91505092915050565b600082601f83011262000a6057600080fd5b815162000a72848260208601620009af565b91505092915050565b60008151905062000a8c8162000ef1565b92915050565b600080600080600080600080610100898b03121562000ab057600080fd5b600089015167ffffffffffffffff81111562000acb57600080fd5b62000ad98b828c01620009f4565b985050602089015167ffffffffffffffff81111562000af757600080fd5b62000b058b828c01620009f4565b975050604089015167ffffffffffffffff81111562000b2357600080fd5b62000b318b828c0162000a21565b965050606089015167ffffffffffffffff81111562000b4f57600080fd5b62000b5d8b828c0162000a21565b955050608089015167ffffffffffffffff81111562000b7b57600080fd5b62000b898b828c0162000a4e565b94505060a089015167ffffffffffffffff81111562000ba757600080fd5b62000bb58b828c0162000a4e565b93505060c062000bc88b828c0162000a7b565b92505060e062000bdb8b828c0162000a7b565b9150509295985092959890939650565b600062000bf88262000d64565b62000c04818562000d6f565b935062000c1681856020860162000de7565b62000c218162000ee0565b840191505092915050565b62000c378162000ddd565b82525050565b6000608082019050818103600083015262000c59818762000beb565b9050818103602083015262000c6f818662000beb565b905062000c80604083018562000c2c565b818103606083015262000c94818462000beb565b905095945050505050565b6000604051905081810181811067ffffffffffffffff8211171562000cc95762000cc862000eb1565b5b8060405250919050565b600067ffffffffffffffff82111562000cf15762000cf062000eb1565b5b602082029050602081019050919050565b600067ffffffffffffffff82111562000d205762000d1f62000eb1565b5b602082029050602081019050919050565b600067ffffffffffffffff82111562000d4f5762000d4e62000eb1565b5b601f19601f8301169050602081019050919050565b600081519050919050565b600082825260208201905092915050565b600062000d8d8262000ddd565b915062000d9a8362000ddd565b9250827fffffffffffffffffffffffffffffffffffffffffffffffffffffffffffffffff0382111562000dd25762000dd162000e53565b5b828201905092915050565b6000819050919050565b60005b8381101562000e0757808201518184015260208101905062000dea565b8381111562000e17576000848401525b50505050565b6000600282049050600182168062000e3657607f821691505b6020821081141562000e4d5762000e4c62000e82565b5b50919050565b7f4e487b7100000000000000000000000000000000000000000000000000000000600052601160045260246000fd5b7f4e487b7100000000000000000000000000000000000000000000000000000000600052602260045260246000fd5b7f4e487b7100000000000000000000000000000000000000000000000000000000600052604160045260246000fd5b6000601f19601f8301169050919050565b62000efc8162000ddd565b811462000f0857600080fd5b50565b614bae8062000f1b6000396000f3fe608060405234801561001057600080fd5b50600436106101375760003560e01c806395d89b41116100b8578063c76d9e7d1161007c578063c76d9e7d1461036b578063c87b56dd14610389578063c8cf27f4146103b9578063d4f24c5b146103d7578063e985e9c5146103e1578063f8b81ef71461041157610137565b806395d89b41146102d5578063a22cb465146102f3578063a9c326791461030f578063b88d4fde14610331578063b953084e1461034d57610137565b80633ba9bf16116100ff5780633ba9bf16146101f257806342842e0e146102295780636352211e1461024557806370a08231146102755780637df124a1146102a557610137565b806301ffc9a71461013c57806306fdde031461016c578063081812fc1461018a578063095ea7b3146101ba57806323b872dd146101d6575b600080fd5b610156600480360381019061015191906131c0565b61042d565b6040516101639190614118565b60405180910390f35b61017461050f565b6040516101819190614133565b60405180910390f35b6101a4600480360381019061019f9190613212565b6105a1565b6040516101b19190614058565b60405180910390f35b6101d460048036038101906101cf9190613184565b610626565b005b6101f060048036038101906101eb919061307e565b61073e565b005b61020c60048036038101906102079190613212565b61079e565b604051610220989796959493929190614530565b60405180910390f35b610243600480360381019061023e919061307e565b6108f6565b005b61025f600480360381019061025a9190613212565b610916565b60405161026c9190614058565b60405180910390f35b61028f600480360381019061028a9190613019565b6109c8565b60405161029c9190614515565b60405180910390f35b6102bf60048036038101906102ba9190613019565b610a80565b6040516102cc9190614515565b60405180910390f35b6102dd610a98565b6040516102ea9190614133565b60405180910390f35b61030d60048036038101906103089190613148565b610b2a565b005b610317610b40565b604051610328959493929190614202565b60405180910390f35b61034b600480360381019061034691906130cd565b610c74565b005b610355610cd6565b60405161036291906140f6565b60405180910390f35b610373610e96565b60405161038091906144d1565b60405180910390f35b6103a3600480360381019061039e9190613212565b610ff2565b6040516103b09190614133565b60405180910390f35b6103c1611236565b6040516103ce91906144f3565b60405180910390f35b6103df611423565b005b6103fb60048036038101906103f69190613042565b61182b565b6040516104089190614118565b60405180910390f35b61042b60048036038101906104269190613212565b6118bf565b005b60007f80ac58cd000000000000000000000000000000000000000000000000000000007bffffffffffffffffffffffffffffffffffffffffffffffffffffffff1916827bffffffffffffffffffffffffffffffffffffffffffffffffffffffff191614806104f857507f5b5e139f000000000000000000000000000000000000000000000000000000007bffffffffffffffffffffffffffffffffffffffffffffffffffffffff1916827bffffffffffffffffffffffffffffffffffffffffffffffffffffffff1916145b80610508575061050782611e22565b5b9050919050565b60606000805461051e906148ac565b80601f016020809104026020016040519081016040528092919081815260200182805461054a906148ac565b80156105975780601f1061056c57610100808354040283529160200191610597565b820191906000526020600020905b81548152906001019060200180831161057a57829003601f168201915b5050505050905090565b60006105ac82611e8c565b6105eb576040517f08c379a00000000000000000000000000000000000000000000000000000000081526004016105e290614431565b60405180910390fd5b6004600083815260200190815260200160002060009054906101000a900473ffffffffffffffffffffffffffffffffffffffff169050919050565b600061063182610916565b90508073ffffffffffffffffffffffffffffffffffffffff168373ffffffffffffffffffffffffffffffffffffffff1614156106a2576040517f08c379a000000000000000000000000000000000000000000000000000000000815260040161069990614471565b60405180910390fd5b8073ffffffffffffffffffffffffffffffffffffffff166106c1611ef8565b73ffffffffffffffffffffffffffffffffffffffff1614806106f057506106ef816106ea611ef8565b61182b565b5b61072f576040517f08c379a0000000000000000000000000000000000000000000000000000000008152600401610726906143b1565b60405180910390fd5b6107398383611f00565b505050565b61074f610749611ef8565b82611fb9565b61078e576040517f08c379a000000000000000000000000000000000000000000000000000000000815260040161078590614491565b60405180910390fd5b610799838383612097565b505050565b600d6020528060005260406000206000915090508060000154908060010180546107c7906148ac565b80601f01602080910402602001604051908101604052809291908181526020018280546107f3906148ac565b80156108405780601f1061081557610100808354040283529160200191610840565b820191906000526020600020905b81548152906001019060200180831161082357829003601f168201915b505050505090806002018054610855906148ac565b80601f0160208091040260200160405190810160405280929190818152602001828054610881906148ac565b80156108ce5780601f106108a3576101008083540402835291602001916108ce565b820191906000526020600020905b8154815290600101906020018083116108b157829003601f168201915b5050505050908060030154908060040154908060050154908060060154908060070154905088565b61091183838360405180602001604052806000815250610c74565b505050565b6000806002600084815260200190815260200160002060009054906101000a900473ffffffffffffffffffffffffffffffffffffffff169050600073ffffffffffffffffffffffffffffffffffffffff168173ffffffffffffffffffffffffffffffffffffffff1614156109bf576040517f08c379a00000000000000000000000000000000000000000000000000000000081526004016109b6906143f1565b60405180910390fd5b80915050919050565b60008073ffffffffffffffffffffffffffffffffffffffff168273ffffffffffffffffffffffffffffffffffffffff161415610a39576040517f08c379a0000000000000000000000000000000000000000000000000000000008152600401610a30906143d1565b60405180910390fd5b600360008373ffffffffffffffffffffffffffffffffffffffff1673ffffffffffffffffffffffffffffffffffffffff168152602001908152602001600020549050919050565b600e6020528060005260406000206000915090505481565b606060018054610aa7906148ac565b80601f0160208091040260200160405190810160405280929190818152602001828054610ad3906148ac565b8015610b205780601f10610af557610100808354040283529160200191610b20565b820191906000526020600020905b815481529060010190602001808311610b0357829003601f168201915b5050505050905090565b610b3c610b35611ef8565b83836122f3565b5050565b6008806000018054610b51906148ac565b80601f0160208091040260200160405190810160405280929190818152602001828054610b7d906148ac565b8015610bca5780601f10610b9f57610100808354040283529160200191610bca565b820191906000526020600020905b815481529060010190602001808311610bad57829003601f168201915b505050505090806001018054610bdf906148ac565b80601f0160208091040260200160405190810160405280929190818152602001828054610c0b906148ac565b8015610c585780601f10610c2d57610100808354040283529160200191610c58565b820191906000526020600020905b815481529060010190602001808311610c3b57829003601f168201915b5050505050908060020154908060030154908060040154905085565b610c85610c7f611ef8565b83611fb9565b610cc4576040517f08c379a0000000000000000000000000000000000000000000000000000000008152600401610cbb90614491565b60405180910390fd5b610cd084848484612460565b50505050565b60606007805480602002602001604051908101604052809291908181526020016000905b82821015610e8d57838290600052602060002090600802016040518061010001604052908160008201548152602001600182018054610d38906148ac565b80601f0160208091040260200160405190810160405280929190818152602001828054610d64906148ac565b8015610db15780601f10610d8657610100808354040283529160200191610db1565b820191906000526020600020905b815481529060010190602001808311610d9457829003601f168201915b50505050508152602001600282018054610dca906148ac565b80601f0160208091040260200160405190810160405280929190818152602001828054610df6906148ac565b8015610e435780601f10610e1857610100808354040283529160200191610e43565b820191906000526020600020905b815481529060010190602001808311610e2657829003601f168201915b505050505081526020016003820154815260200160048201548152602001600582015481526020016006820154815260200160078201548152505081526020019060010190610cfa565b50505050905090565b610e9e612e31565b60086040518060a0016040529081600082018054610ebb906148ac565b80601f0160208091040260200160405190810160405280929190818152602001828054610ee7906148ac565b8015610f345780601f10610f0957610100808354040283529160200191610f34565b820191906000526020600020905b815481529060010190602001808311610f1757829003601f168201915b50505050508152602001600182018054610f4d906148ac565b80601f0160208091040260200160405190810160405280929190818152602001828054610f79906148ac565b8015610fc65780601f10610f9b57610100808354040283529160200191610fc6565b820191906000526020600020905b815481529060010190602001808311610fa957829003601f168201915b505050505081526020016002820154815260200160038201548152602001600482015481525050905090565b60606000600d6000848152602001908152602001600020604051806101000160405290816000820154815260200160018201805461102f906148ac565b80601f016020809104026020016040519081016040528092919081815260200182805461105b906148ac565b80156110a85780601f1061107d576101008083540402835291602001916110a8565b820191906000526020600020905b81548152906001019060200180831161108b57829003601f168201915b505050505081526020016002820180546110c1906148ac565b80601f01602080910402602001604051908101604052809291908181526020018280546110ed906148ac565b801561113a5780601f1061110f5761010080835404028352916020019161113a565b820191906000526020600020905b81548152906001019060200180831161111d57829003601f168201915b50505050508152602001600382015481526020016004820154815260200160058201548152602001600682015481526020016007820154815250509050600061118682606001516124bc565b9050600061119783608001516124bc565b905060006111a88460a001516124bc565b905060006111b98560c001516124bc565b9050600061120186602001516111ce8a6124bc565b8860400151888888886040516020016111ed9796959493929190613f4d565b604051602081830303815290604052612669565b90506000816040516020016112169190614036565b604051602081830303815290604052905080975050505050505050919050565b61123e612e60565b6000600e60003373ffffffffffffffffffffffffffffffffffffffff1673ffffffffffffffffffffffffffffffffffffffff168152602001908152602001600020549050600081111561141257600d600082815260200190815260200160002060405180610100016040529081600082015481526020016001820180546112c4906148ac565b80601f01602080910402602001604051908101604052809291908181526020018280546112f0906148ac565b801561133d5780601f106113125761010080835404028352916020019161133d565b820191906000526020600020905b81548152906001019060200180831161132057829003601f168201915b50505050508152602001600282018054611356906148ac565b80601f0160208091040260200160405190810160405280929190818152602001828054611382906148ac565b80156113cf5780601f106113a4576101008083540402835291602001916113cf565b820191906000526020600020905b8154815290600101906020018083116113b257829003601f168201915b5050505050815260200160038201548152602001600482015481526020016005820154815260200160068201548152602001600782015481525050915050611420565b61141a612e60565b80925050505b90565b6000600e60003373ffffffffffffffffffffffffffffffffffffffff1673ffffffffffffffffffffffffffffffffffffffff1681526020019081526020016000205490506000600d600083815260200190815260200160002090506115366040518060600160405280603c8152602001614b3d603c91398260010180546114a9906148ac565b80601f01602080910402602001604051908101604052809291908181526020018280546114d5906148ac565b80156115225780601f106114f757610100808354040283529160200191611522565b820191906000526020600020905b81548152906001019060200180831161150557829003601f168201915b505050505083600301548460050154612827565b61160e6040518060400160405280601b81526020017f426f73732025732068617320257320485020616e6420257320414400000000008152506008600001805461157f906148ac565b80601f01602080910402602001604051908101604052809291908181526020018280546115ab906148ac565b80156115f85780601f106115cd576101008083540402835291602001916115f8565b820191906000526020600020905b8154815290600101906020018083116115db57829003601f168201915b5050505050600860020154600860040154612827565b42816007015410611654576040517f08c379a000000000000000000000000000000000000000000000000000000000815260040161164b906144b1565b60405180910390fd5b600081600301541161169b576040517f08c379a000000000000000000000000000000000000000000000000000000000815260040161169290614311565b60405180910390fd5b6000600860020154116116e3576040517f08c379a00000000000000000000000000000000000000000000000000000000081526004016116da906142d1565b60405180910390fd5b80600501546008600201541015611704576000600860020181905550611723565b806005015460086002015461171991906147c2565b6008600201819055505b60086004015481600301541015611774576000816003018190555080600601544261174e91906146e1565b8160070181905550600281600501546117679190614768565b8160050181905550611792565b600860040154816003015461178991906147c2565b81600301819055505b6117b9604051806060016040528060258152602001614a82602591396008600201546128c9565b6117df604051806060016040528060288152602001614ae76028913982600301546128c9565b7fa8f68fa0afad68f1577a1c5c66c297b751442bbab5e98c25f07ee510a921558c6008600201548260030154836007015460405161181f939291906145bc565b60405180910390a15050565b6000600560008473ffffffffffffffffffffffffffffffffffffffff1673ffffffffffffffffffffffffffffffffffffffff16815260200190815260200160002060008373ffffffffffffffffffffffffffffffffffffffff1673ffffffffffffffffffffffffffffffffffffffff16815260200190815260200160002060009054906101000a900460ff16905092915050565b60006118cb6006612965565b90506118d73382612973565b60405180610100016040528083815260200160078481548110611923577f4e487b7100000000000000000000000000000000000000000000000000000000600052603260045260246000fd5b9060005260206000209060080201600101805461193f906148ac565b80601f016020809104026020016040519081016040528092919081815260200182805461196b906148ac565b80156119b85780601f1061198d576101008083540402835291602001916119b8565b820191906000526020600020905b81548152906001019060200180831161199b57829003601f168201915b50505050508152602001600784815481106119fc577f4e487b7100000000000000000000000000000000000000000000000000000000600052603260045260246000fd5b90600052602060002090600802016002018054611a18906148ac565b80601f0160208091040260200160405190810160405280929190818152602001828054611a44906148ac565b8015611a915780601f10611a6657610100808354040283529160200191611a91565b820191906000526020600020905b815481529060010190602001808311611a7457829003601f168201915b5050505050815260200160078481548110611ad5577f4e487b7100000000000000000000000000000000000000000000000000000000600052603260045260246000fd5b906000526020600020906008020160030154815260200160078481548110611b26577f4e487b7100000000000000000000000000000000000000000000000000000000600052603260045260246000fd5b906000526020600020906008020160040154815260200160078481548110611b77577f4e487b7100000000000000000000000000000000000000000000000000000000600052603260045260246000fd5b906000526020600020906008020160050154815260200160078481548110611bc8577f4e487b7100000000000000000000000000000000000000000000000000000000600052603260045260246000fd5b906000526020600020906008020160060154815260200160078481548110611c19577f4e487b7100000000000000000000000000000000000000000000000000000000600052603260045260246000fd5b906000526020600020906008020160070154815250600d6000838152602001908152602001600020600082015181600001556020820151816001019080519060200190611c67929190612ea5565b506040820151816002019080519060200190611c84929190612ea5565b50606082015181600301556080820151816004015560a0820151816005015560c0820151816006015560e08201518160070155905050611cdd6040518060600160405280602e8152602001614b0f602e91398284612991565b80600e60003373ffffffffffffffffffffffffffffffffffffffff1673ffffffffffffffffffffffffffffffffffffffff16815260200190815260200160002081905550611d2b6006611e0c565b7f4bc303fd457a97b4691b9af582ce71868a3d258638c8d4f8c60988a0f0bfb8cd338284604051611d5e939291906140bf565b60405180910390a15050565b611e0684848484604051602401611d849493929190614155565b6040516020818303038152906040527f8d142cdd000000000000000000000000000000000000000000000000000000007bffffffffffffffffffffffffffffffffffffffffffffffffffffffff19166020820180517bffffffffffffffffffffffffffffffffffffffffffffffffffffffff8381831617835250505050612a30565b50505050565b6001816000016000828254019250508190555050565b60007f01ffc9a7000000000000000000000000000000000000000000000000000000007bffffffffffffffffffffffffffffffffffffffffffffffffffffffff1916827bffffffffffffffffffffffffffffffffffffffffffffffffffffffff1916149050919050565b60008073ffffffffffffffffffffffffffffffffffffffff166002600084815260200190815260200160002060009054906101000a900473ffffffffffffffffffffffffffffffffffffffff1673ffffffffffffffffffffffffffffffffffffffff1614159050919050565b600033905090565b816004600083815260200190815260200160002060006101000a81548173ffffffffffffffffffffffffffffffffffffffff021916908373ffffffffffffffffffffffffffffffffffffffff160217905550808273ffffffffffffffffffffffffffffffffffffffff16611f7383610916565b73ffffffffffffffffffffffffffffffffffffffff167f8c5be1e5ebec7d5bd14f71427d1e84f3dd0314c0f7b2291e5b200ac8c7c3b92560405160405180910390a45050565b6000611fc482611e8c565b612003576040517f08c379a0000000000000000000000000000000000000000000000000000000008152600401611ffa90614391565b60405180910390fd5b600061200e83610916565b90508073ffffffffffffffffffffffffffffffffffffffff168473ffffffffffffffffffffffffffffffffffffffff16148061207d57508373ffffffffffffffffffffffffffffffffffffffff16612065846105a1565b73ffffffffffffffffffffffffffffffffffffffff16145b8061208e575061208d818561182b565b5b91505092915050565b8273ffffffffffffffffffffffffffffffffffffffff166120b782610916565b73ffffffffffffffffffffffffffffffffffffffff161461210d576040517f08c379a000000000000000000000000000000000000000000000000000000000815260040161210490614451565b60405180910390fd5b600073ffffffffffffffffffffffffffffffffffffffff168273ffffffffffffffffffffffffffffffffffffffff16141561217d576040517f08c379a000000000000000000000000000000000000000000000000000000000815260040161217490614351565b60405180910390fd5b612188838383612a59565b612193600082611f00565b6001600360008573ffffffffffffffffffffffffffffffffffffffff1673ffffffffffffffffffffffffffffffffffffffff16815260200190815260200160002060008282546121e391906147c2565b925050819055506001600360008473ffffffffffffffffffffffffffffffffffffffff1673ffffffffffffffffffffffffffffffffffffffff168152602001908152602001600020600082825461223a91906146e1565b92505081905550816002600083815260200190815260200160002060006101000a81548173ffffffffffffffffffffffffffffffffffffffff021916908373ffffffffffffffffffffffffffffffffffffffff160217905550808273ffffffffffffffffffffffffffffffffffffffff168473ffffffffffffffffffffffffffffffffffffffff167fddf252ad1be2c89b69c2b068fc378daa952ba7f163c4a11628f55a4df523b3ef60405160405180910390a4505050565b8173ffffffffffffffffffffffffffffffffffffffff168373ffffffffffffffffffffffffffffffffffffffff161415612362576040517f08c379a000000000000000000000000000000000000000000000000000000000815260040161235990614371565b60405180910390fd5b80600560008573ffffffffffffffffffffffffffffffffffffffff1673ffffffffffffffffffffffffffffffffffffffff16815260200190815260200160002060008473ffffffffffffffffffffffffffffffffffffffff1673ffffffffffffffffffffffffffffffffffffffff16815260200190815260200160002060006101000a81548160ff0219169083151502179055508173ffffffffffffffffffffffffffffffffffffffff168373ffffffffffffffffffffffffffffffffffffffff167f17307eab39ab6107e8899845ad3d59bd9653f200f220920489ca2b5937696c31836040516124539190614118565b60405180910390a3505050565b61246b848484612097565b61247784848484612a5e565b6124b6576040517f08c379a00000000000000000000000000000000000000000000000000000000081526004016124ad906142f1565b60405180910390fd5b50505050565b60606000821415612504576040518060400160405280600181526020017f30000000000000000000000000000000000000000000000000000000000000008152509050612664565b600082905060005b6000821461253657808061251f906148de565b915050600a8261252f9190614737565b915061250c565b60008167ffffffffffffffff811115612578577f4e487b7100000000000000000000000000000000000000000000000000000000600052604160045260246000fd5b6040519080825280601f01601f1916602001820160405280156125aa5781602001600182028036833780820191505090505b5090505b6000851461265d576001826125c391906147c2565b9150600a856125d29190614927565b60306125de91906146e1565b60f81b81838151811061261a577f4e487b7100000000000000000000000000000000000000000000000000000000600052603260045260246000fd5b60200101907effffffffffffffffffffffffffffffffffffffffffffffffffffffffffffff1916908160001a905350600a856126569190614737565b94506125ae565b8093505050505b919050565b606060008251905060008114156126925760405180602001604052806000815250915050612822565b600060036002836126a391906146e1565b6126ad9190614737565b60046126b99190614768565b905060006020826126ca91906146e1565b67ffffffffffffffff811115612709577f4e487b7100000000000000000000000000000000000000000000000000000000600052604160045260246000fd5b6040519080825280601f01601f19166020018201604052801561273b5781602001600182028036833780820191505090505b5090506000604051806060016040528060408152602001614aa7604091399050600181016020830160005b868110156127df5760038101905062ffffff818a015116603f8160121c168401518060081b905060ff603f83600c1c1686015116810190508060081b905060ff603f8360061c1686015116810190508060081b905060ff603f831686015116810190508060e01b90508084526004840193505050612766565b5060038606600181146127f9576002811461280957612814565b613d3d60f01b6002830352612814565b603d60f81b60018303525b508484525050819450505050505b919050565b6128c38484848460405160240161284194939291906141af565b6040516020818303038152906040527fd5cf17d0000000000000000000000000000000000000000000000000000000007bffffffffffffffffffffffffffffffffffffffffffffffffffffffff19166020820180517bffffffffffffffffffffffffffffffffffffffffffffffffffffffff8381831617835250505050612a30565b50505050565b61296182826040516024016128df929190614263565b6040516020818303038152906040527f9710a9d0000000000000000000000000000000000000000000000000000000007bffffffffffffffffffffffffffffffffffffffffffffffffffffffff19166020820180517bffffffffffffffffffffffffffffffffffffffffffffffffffffffff8381831617835250505050612a30565b5050565b600081600001549050919050565b61298d828260405180602001604052806000815250612bf5565b5050565b612a2b8383836040516024016129a993929190614293565b6040516020818303038152906040527f969cdd03000000000000000000000000000000000000000000000000000000007bffffffffffffffffffffffffffffffffffffffffffffffffffffffff19166020820180517bffffffffffffffffffffffffffffffffffffffffffffffffffffffff8381831617835250505050612a30565b505050565b60008151905060006a636f6e736f6c652e6c6f679050602083016000808483855afa5050505050565b505050565b6000612a7f8473ffffffffffffffffffffffffffffffffffffffff16612c50565b15612be8578373ffffffffffffffffffffffffffffffffffffffff1663150b7a02612aa8611ef8565b8786866040518563ffffffff1660e01b8152600401612aca9493929190614073565b602060405180830381600087803b158015612ae457600080fd5b505af1925050508015612b1557506040513d601f19601f82011682018060405250810190612b1291906131e9565b60015b612b98573d8060008114612b45576040519150601f19603f3d011682016040523d82523d6000602084013e612b4a565b606091505b50600081511415612b90576040517f08c379a0000000000000000000000000000000000000000000000000000000008152600401612b87906142f1565b60405180910390fd5b805181602001fd5b63150b7a0260e01b7bffffffffffffffffffffffffffffffffffffffffffffffffffffffff1916817bffffffffffffffffffffffffffffffffffffffffffffffffffffffff191614915050612bed565b600190505b949350505050565b612bff8383612c63565b612c0c6000848484612a5e565b612c4b576040517f08c379a0000000000000000000000000000000000000000000000000000000008152600401612c42906142f1565b60405180910390fd5b505050565b600080823b905060008111915050919050565b600073ffffffffffffffffffffffffffffffffffffffff168273ffffffffffffffffffffffffffffffffffffffff161415612cd3576040517f08c379a0000000000000000000000000000000000000000000000000000000008152600401612cca90614411565b60405180910390fd5b612cdc81611e8c565b15612d1c576040517f08c379a0000000000000000000000000000000000000000000000000000000008152600401612d1390614331565b60405180910390fd5b612d2860008383612a59565b6001600360008473ffffffffffffffffffffffffffffffffffffffff1673ffffffffffffffffffffffffffffffffffffffff1681526020019081526020016000206000828254612d7891906146e1565b92505081905550816002600083815260200190815260200160002060006101000a81548173ffffffffffffffffffffffffffffffffffffffff021916908373ffffffffffffffffffffffffffffffffffffffff160217905550808273ffffffffffffffffffffffffffffffffffffffff16600073ffffffffffffffffffffffffffffffffffffffff167fddf252ad1be2c89b69c2b068fc378daa952ba7f163c4a11628f55a4df523b3ef60405160405180910390a45050565b6040518060a0016040528060608152602001606081526020016000815260200160008152602001600081525090565b60405180610100016040528060008152602001606081526020016060815260200160008152602001600081526020016000815260200160008152602001600081525090565b828054612eb1906148ac565b90600052602060002090601f016020900481019282612ed35760008555612f1a565b82601f10612eec57805160ff1916838001178555612f1a565b82800160010185558215612f1a579182015b82811115612f19578251825591602001919060010190612efe565b5b509050612f279190612f2b565b5090565b5b80821115612f44576000816000905550600101612f2c565b5090565b6000612f5b612f5684614624565b6145f3565b905082815260208101848484011115612f7357600080fd5b612f7e84828561486a565b509392505050565b600081359050612f9581614a25565b92915050565b600081359050612faa81614a3c565b92915050565b600081359050612fbf81614a53565b92915050565b600081519050612fd481614a53565b92915050565b600082601f830112612feb57600080fd5b8135612ffb848260208601612f48565b91505092915050565b60008135905061301381614a6a565b92915050565b60006020828403121561302b57600080fd5b600061303984828501612f86565b91505092915050565b6000806040838503121561305557600080fd5b600061306385828601612f86565b925050602061307485828601612f86565b9150509250929050565b60008060006060848603121561309357600080fd5b60006130a186828701612f86565b93505060206130b286828701612f86565b92505060406130c386828701613004565b9150509250925092565b600080600080608085870312156130e357600080fd5b60006130f187828801612f86565b945050602061310287828801612f86565b935050604061311387828801613004565b925050606085013567ffffffffffffffff81111561313057600080fd5b61313c87828801612fda565b91505092959194509250565b6000806040838503121561315b57600080fd5b600061316985828601612f86565b925050602061317a85828601612f9b565b9150509250929050565b6000806040838503121561319757600080fd5b60006131a585828601612f86565b92505060206131b685828601613004565b9150509250929050565b6000602082840312156131d257600080fd5b60006131e084828501612fb0565b91505092915050565b6000602082840312156131fb57600080fd5b600061320984828501612fc5565b91505092915050565b60006020828403121561322457600080fd5b600061323284828501613004565b91505092915050565b60006132478383613dc1565b905092915050565b613258816147f6565b82525050565b600061326982614664565b6132738185614692565b93508360208202850161328585614654565b8060005b858110156132c157848403895281516132a2858261323b565b94506132ad83614685565b925060208a01995050600181019050613289565b50829750879550505050505092915050565b6132dc81614808565b82525050565b60006132ed8261466f565b6132f781856146a3565b9350613307818560208601614879565b61331081614a14565b840191505092915050565b60006133268261467a565b61333081856146b4565b9350613340818560208601614879565b61334981614a14565b840191505092915050565b600061335f8261467a565b61336981856146c5565b9350613379818560208601614879565b61338281614a14565b840191505092915050565b60006133988261467a565b6133a281856146d6565b93506133b2818560208601614879565b80840191505092915050565b60006133cb6002836146d6565b91507f7d2c0000000000000000000000000000000000000000000000000000000000006000830152600282019050919050565b600061340b600b836146d6565b91507f202d2d204e465420233a200000000000000000000000000000000000000000006000830152600b82019050919050565b600061344b602a836146d6565b91507f207b2274726169745f74797065223a202241747461636b2044616d616765222c60008301527f202276616c7565223a20000000000000000000000000000000000000000000006020830152602a82019050919050565b60006134b16027836146c5565b91507f4572726f723a20626f7373206d757374206861766520687020746f206174746160008301527f636b20626f7373000000000000000000000000000000000000000000000000006020830152604082019050919050565b60006135176032836146c5565b91507f4552433732313a207472616e7366657220746f206e6f6e20455243373231526560008301527f63656976657220696d706c656d656e74657200000000000000000000000000006020830152604082019050919050565b600061357d602d836146c5565b91507f4572726f723a20636861726163746572206d757374206861766520485020746f60008301527f2061747461636b20426f737321000000000000000000000000000000000000006020830152604082019050919050565b60006135e3601c836146c5565b91507f4552433732313a20746f6b656e20616c7265616479206d696e746564000000006000830152602082019050919050565b60006136236011836146d6565b91507f222c202261747472696275746573223a200000000000000000000000000000006000830152601182019050919050565b60006136636024836146c5565b91507f4552433732313a207472616e7366657220746f20746865207a65726f2061646460008301527f72657373000000000000000000000000000000000000000000000000000000006020830152604082019050919050565b60006136c96019836146c5565b91507f4552433732313a20617070726f766520746f2063616c6c6572000000000000006000830152602082019050919050565b6000613709605d836146d6565b91507f222c20226465736372697074696f6e223a20225468697320697320616e204e4660008301527f542074686174206c6574732070656f706c6520706c617920696e20746865206760208301527f616d6520435320474f204845524f455321222c2022696d616765223a220000006040830152605d82019050919050565b6000613795600f836146d6565b91507f2c20226d61785f76616c7565223a2000000000000000000000000000000000006000830152600f82019050919050565b60006137d5602c836146c5565b91507f4552433732313a206f70657261746f7220717565727920666f72206e6f6e657860008301527f697374656e7420746f6b656e00000000000000000000000000000000000000006020830152604082019050919050565b600061383b6038836146c5565b91507f4552433732313a20617070726f76652063616c6c6572206973206e6f74206f7760008301527f6e6572206e6f7220617070726f76656420666f7220616c6c00000000000000006020830152604082019050919050565b60006138a1602c836146d6565b91507f5b207b202274726169745f74797065223a20224865616c746820506f696e747360008301527f222c202276616c7565223a2000000000000000000000000000000000000000006020830152602c82019050919050565b6000613907602a836146c5565b91507f4552433732313a2062616c616e636520717565727920666f7220746865207a6560008301527f726f2061646472657373000000000000000000000000000000000000000000006020830152604082019050919050565b600061396d6029836146c5565b91507f4552433732313a206f776e657220717565727920666f72206e6f6e657869737460008301527f656e7420746f6b656e00000000000000000000000000000000000000000000006020830152604082019050919050565b60006139d36020836146c5565b91507f4552433732313a206d696e7420746f20746865207a65726f20616464726573736000830152602082019050919050565b6000613a136001836146d6565b91507f7d000000000000000000000000000000000000000000000000000000000000006000830152600182019050919050565b6000613a53602c836146c5565b91507f4552433732313a20617070726f76656420717565727920666f72206e6f6e657860008301527f697374656e7420746f6b656e00000000000000000000000000000000000000006020830152604082019050919050565b6000613ab96033836146d6565b91507f207b2274726169745f74797065223a20225265737061776e2054696d6520287360008301527f65636f6e647329222c202276616c7565223a20000000000000000000000000006020830152603382019050919050565b6000613b1f6029836146c5565b91507f4552433732313a207472616e73666572206f6620746f6b656e2074686174206960008301527f73206e6f74206f776e00000000000000000000000000000000000000000000006020830152604082019050919050565b6000613b85600a836146d6565b91507f7b226e616d65223a2022000000000000000000000000000000000000000000006000830152600a82019050919050565b6000613bc56002836146d6565b91507f5d7d0000000000000000000000000000000000000000000000000000000000006000830152600282019050919050565b6000613c056021836146c5565b91507f4552433732313a20617070726f76616c20746f2063757272656e74206f776e6560008301527f72000000000000000000000000000000000000000000000000000000000000006020830152604082019050919050565b6000613c6b601d836146d6565b91507f646174613a6170706c69636174696f6e2f6a736f6e3b6261736536342c0000006000830152601d82019050919050565b6000613cab6031836146c5565b91507f4552433732313a207472616e736665722063616c6c6572206973206e6f74206f60008301527f776e6572206e6f7220617070726f7665640000000000000000000000000000006020830152604082019050919050565b6000613d11601e836146c5565b91507f4572726f723a20706c617965722073686f756c6420626520616c6976652100006000830152602082019050919050565b600060a0830160008301518482036000860152613d61828261331b565b91505060208301518482036020860152613d7b828261331b565b9150506040830151613d906040860182613f2f565b506060830151613da36060860182613f2f565b506080830151613db66080860182613f2f565b508091505092915050565b600061010083016000830151613dda6000860182613f2f565b5060208301518482036020860152613df2828261331b565b91505060408301518482036040860152613e0c828261331b565b9150506060830151613e216060860182613f2f565b506080830151613e346080860182613f2f565b5060a0830151613e4760a0860182613f2f565b5060c0830151613e5a60c0860182613f2f565b5060e0830151613e6d60e0860182613f2f565b508091505092915050565b600061010083016000830151613e916000860182613f2f565b5060208301518482036020860152613ea9828261331b565b91505060408301518482036040860152613ec3828261331b565b9150506060830151613ed86060860182613f2f565b506080830151613eeb6080860182613f2f565b5060a0830151613efe60a0860182613f2f565b5060c0830151613f1160c0860182613f2f565b5060e0830151613f2460e0860182613f2f565b508091505092915050565b613f3881614860565b82525050565b613f4781614860565b82525050565b6000613f5882613b78565b9150613f64828a61338d565b9150613f6f826133fe565b9150613f7b828961338d565b9150613f86826136fc565b9150613f92828861338d565b9150613f9d82613616565b9150613fa882613894565b9150613fb4828761338d565b9150613fbf82613788565b9150613fcb828661338d565b9150613fd6826133be565b9150613fe18261343e565b9150613fed828561338d565b9150613ff8826133be565b915061400382613aac565b915061400f828461338d565b915061401a82613a06565b915061402582613bb8565b915081905098975050505050505050565b600061404182613c5e565b915061404d828461338d565b915081905092915050565b600060208201905061406d600083018461324f565b92915050565b6000608082019050614088600083018761324f565b614095602083018661324f565b6140a26040830185613f3e565b81810360608301526140b481846132e2565b905095945050505050565b60006060820190506140d4600083018661324f565b6140e16020830185613f3e565b6140ee6040830184613f3e565b949350505050565b60006020820190508181036000830152614110818461325e565b905092915050565b600060208201905061412d60008301846132d3565b92915050565b6000602082019050818103600083015261414d8184613354565b905092915050565b6000608082019050818103600083015261416f8187613354565b905081810360208301526141838186613354565b90506141926040830185613f3e565b81810360608301526141a48184613354565b905095945050505050565b600060808201905081810360008301526141c98187613354565b905081810360208301526141dd8186613354565b90506141ec6040830185613f3e565b6141f96060830184613f3e565b95945050505050565b600060a082019050818103600083015261421c8188613354565b905081810360208301526142308187613354565b905061423f6040830186613f3e565b61424c6060830185613f3e565b6142596080830184613f3e565b9695505050505050565b6000604082019050818103600083015261427d8185613354565b905061428c6020830184613f3e565b9392505050565b600060608201905081810360008301526142ad8186613354565b90506142bc6020830185613f3e565b6142c96040830184613f3e565b949350505050565b600060208201905081810360008301526142ea816134a4565b9050919050565b6000602082019050818103600083015261430a8161350a565b9050919050565b6000602082019050818103600083015261432a81613570565b9050919050565b6000602082019050818103600083015261434a816135d6565b9050919050565b6000602082019050818103600083015261436a81613656565b9050919050565b6000602082019050818103600083015261438a816136bc565b9050919050565b600060208201905081810360008301526143aa816137c8565b9050919050565b600060208201905081810360008301526143ca8161382e565b9050919050565b600060208201905081810360008301526143ea816138fa565b9050919050565b6000602082019050818103600083015261440a81613960565b9050919050565b6000602082019050818103600083015261442a816139c6565b9050919050565b6000602082019050818103600083015261444a81613a46565b9050919050565b6000602082019050818103600083015261446a81613b12565b9050919050565b6000602082019050818103600083015261448a81613bf8565b9050919050565b600060208201905081810360008301526144aa81613c9e565b9050919050565b600060208201905081810360008301526144ca81613d04565b9050919050565b600060208201905081810360008301526144eb8184613d44565b905092915050565b6000602082019050818103600083015261450d8184613e78565b905092915050565b600060208201905061452a6000830184613f3e565b92915050565b600061010082019050614546600083018b613f3e565b8181036020830152614558818a613354565b9050818103604083015261456c8189613354565b905061457b6060830188613f3e565b6145886080830187613f3e565b61459560a0830186613f3e565b6145a260c0830185613f3e565b6145af60e0830184613f3e565b9998505050505050505050565b60006060820190506145d16000830186613f3e565b6145de6020830185613f3e565b6145eb6040830184613f3e565b949350505050565b6000604051905081810181811067ffffffffffffffff8211171561461a576146196149e5565b5b8060405250919050565b600067ffffffffffffffff82111561463f5761463e6149e5565b5b601f19601f8301169050602081019050919050565b6000819050602082019050919050565b600081519050919050565b600081519050919050565b600081519050919050565b6000602082019050919050565b600082825260208201905092915050565b600082825260208201905092915050565b600082825260208201905092915050565b600082825260208201905092915050565b600081905092915050565b60006146ec82614860565b91506146f783614860565b9250827fffffffffffffffffffffffffffffffffffffffffffffffffffffffffffffffff0382111561472c5761472b614958565b5b828201905092915050565b600061474282614860565b915061474d83614860565b92508261475d5761475c614987565b5b828204905092915050565b600061477382614860565b915061477e83614860565b9250817fffffffffffffffffffffffffffffffffffffffffffffffffffffffffffffffff04831182151516156147b7576147b6614958565b5b828202905092915050565b60006147cd82614860565b91506147d883614860565b9250828210156147eb576147ea614958565b5b828203905092915050565b600061480182614840565b9050919050565b60008115159050919050565b60007fffffffff0000000000000000000000000000000000000000000000000000000082169050919050565b600073ffffffffffffffffffffffffffffffffffffffff82169050919050565b6000819050919050565b82818337600083830152505050565b60005b8381101561489757808201518184015260208101905061487c565b838111156148a6576000848401525b50505050565b600060028204905060018216806148c457607f821691505b602082108114156148d8576148d76149b6565b5b50919050565b60006148e982614860565b91507fffffffffffffffffffffffffffffffffffffffffffffffffffffffffffffffff82141561491c5761491b614958565b5b600182019050919050565b600061493282614860565b915061493d83614860565b92508261494d5761494c614987565b5b828206905092915050565b7f4e487b7100000000000000000000000000000000000000000000000000000000600052601160045260246000fd5b7f4e487b7100000000000000000000000000000000000000000000000000000000600052601260045260246000fd5b7f4e487b7100000000000000000000000000000000000000000000000000000000600052602260045260246000fd5b7f4e487b7100000000000000000000000000000000000000000000000000000000600052604160045260246000fd5b6000601f19601f8301169050919050565b614a2e816147f6565b8114614a3957600080fd5b50565b614a4581614808565b8114614a5057600080fd5b50565b614a5c81614814565b8114614a6757600080fd5b50565b614a7381614860565b8114614a7e57600080fd5b5056fe506c617965722061747461636b656420626f73732e204e657720626f73732068703a2025734142434445464748494a4b4c4d4e4f505152535455565758595a6162636465666768696a6b6c6d6e6f707172737475767778797a303132333435363738392b2f426f73732061747461636b656420706c617965722e204e657720706c617965722068703a2025730a4d696e746564204e465420772f20746f6b656e496420257320616e6420636861726163746572496e6465782025730a506c6179657220772f206368617261637465722025732061626f757420746f2061747461636b2e2048617320257320485020616e64202573204144a26469706673582212204a083c3a2a98c86c79987416ffbbfefc454996cd32073de79e30d86bf234324264736f6c63430008000033446f6e6520696e697469616c697a696e6720257320772f2048502025732c20696d67202573446f6e6520696e697420626f737320257320772f2048502025732c20696d67202573",
  "linkReferences": {},
  "deployedLinkReferences": {}
}